:020000040800F2
:1000000000000220DDD9000845040108C9040108E8
:10001000DD040108FD0401080505010800000000D9
:10002000000000000000000000000000E1DA00080D
:100030000D0501080000000071DB00081105010832
:1000400031DA000831DA000831DA000831DA000864
:1000500031DA000831DA000849250208692502086A
:1000600089250208A9250208C925020815050108E5
:1000700031DA00082105010831DA00082D050108F0
:10008000390501084505010831DA00085D05010858
:10009000690501087505010881050108E9250208BF
:1000A00031DA000831DA000831DA000831DA000804
:1000B00031DA000831DA000831DA0008C9E900084D
:1000C000D5E9000831DA000831DA000831DA000831
:1000D00031DA000831DA00088D05010831DA00084C
:1000E0006D26020831DA000831DA000831DA00083A
:1000F000DDE600089905010831DA0008510501081C
:1001000031DA000831DA0008D1E60008B505010847
:10011000C105010831DA000831DA000831DA0008D7
:1001200031DA000831DA000831DA000831DA000883
:1001300031DA0008000000000000000031DA000899
:1001400031DA000831DA000831DA0008E1E90008A4
:1001500031DA000831DA000831DA000831DA000853
:1001600031DA000831DA000831DA000831DA000843
:1001700031DA000885E700080000000000000000F8
:0801800031DA000831DA000851
:1001C0000348044B834202D0034B03B118477047E6
:1001D000A00F0020A00F00200000000005480649E5
:1001E0000B1AD90F01EBA301491002D0034B03B145
:1001F00018477047A00F0020A00F0020000000004B
:1002000010B5064C237843B9FFF7DAFF044B13B15E
:100210000448AFF300800123237010BDA00F00201D
:1002200000000000909F030808B5044B1BB104496F
:100230000448AFF30080BDE80840CFE700000000AD
:10024000A40F0020909F030810EE102AC2F3C7539A
:100250007F3B162B22F0004128DC002B18DB1A49CB
:1002600019410A4221D0DFED197A70EE277AF5EEB6
:10027000C07AF1EE10FA18DD002A04DA4FF400001B
:1002800040FA03F31A4422EA010300EE103A7047E1
:10029000DFED0E7A70EE277AF5EEC07AF1EE10FA05
:1002A00003DD002A08DB9FED0A0A7047B1F1FF4F1A
:1002B000FBD330EE000A7047FFEE007A002918BF2A
:1002C000B0EE670A704700BFFFFF7F00CAF24971B6
:1002D0000000000010EE103AC3F3C7527F3A162A0E
:1002E00010EE101A15DC002A0CDB0C4810410342FA
:1002F00005D04FF4800313410B4423EA000300EEC2
:10030000103A7047013203F00043F8D143F07E53B6
:10031000F5E7802AF3D130EE000A7047FFFF7F0037
:1003200008B52DED028BB0EE408A00F021F80E4B9F
:1003300093F9003001330BD0B4EE488AF1EE10FA95
:1003400006D6DFED0A8AB4EEE88AF1EE10FA02D49E
:10035000BDEC028B08BD00F023F888EEA80ABDECC6
:10036000028B2123036008BD14020020000000005E
:10037000B1EEC00A704700BF08B5062000F024FDAA
:1003800001200DF029FB00BF002301461A46184644
:1003900003F0A0BC13460A460146022003F09ABCB3
:1003A000014B1868704700BF1802002038B5084B91
:1003B000084D5B1B9C1007D0043B1D44013C55F8C5
:1003C00004399847002CF9D1BDE8384039F0E6BD32
:1003D000C8EC0408C4EC040870B50D4E0D4D761B36
:1003E000B61006D0002455F8043B01349847A642C5
:1003F000F9D1094E094D761B39F0CAFDB61006D069
:10040000002455F8043B01349847A642F9D170BD49
:100410009CEC04089CEC0408C4EC04089CEC040864
:10042000024B0146186800F00BB800BF180200200C
:10043000024B0146186804F0F7BE00BF1802002006
:100440002DE9F04F01F10B06162E83B0044624D897
:10045000102900F2BA8000F005FC102618220220B4
:10046000B74F3A44A2F1080153688B4200F0BA80BA
:100470005A68D96822F003021A449D68E9608D60C9
:10048000516841F001012046516003F1080500F078
:10049000EBFB284603B0BDE8F08F36F0070600F10D
:1004A0009480B14200F2918000F0DCFBB6F5FC7F55
:1004B000C0F09681730A00F08F80042B00F26B81EC
:1004C000B30903F1390003F1380CC3009C4F3B44DE
:1004D000A3F108055B689D4206D10CE0002980F27B
:1004E0002B81DB689D4206D05A6822F00302911BE3
:1004F0000F29F3DD60463D69DFF848C265457CD0D1
:100500006A6822F00302931B0F2B00F37781002B04
:10051000C7E904CC80F26881B2F5007F80F01681D3
:10052000D308796801334FEA521E012202FA0EF213
:100530000A4357F833E0C5F808E007EBC301083970
:10054000E9607A6047F83350CEF80C5083100121EF
:100550009940914257D8114206D120F0030049003A
:10056000114200F10400FAD007EBC0094D4686465F
:10057000D5F80C80454508D119E1002B80F2208187
:10058000D8F80C80454500F01281D8F8042022F0FC
:100590000302931B0F2BF0DD2046D8E9025408EB31
:1005A000060146F00106C8F80460EC60A56043F05F
:1005B0000104C7E90411C1E902CC4C6048F80230DB
:1005C00000F052FB08F1080502E00C23236000252F
:1005D000284603B0BDE8F08F4FF4007340204FF081
:1005E0003F0C73E7D3689A4208BF02307FF440AFF4
:1005F0003D69DFF850C1654582D17A6883100121D9
:1006000099409142A7D9BD686B6823F0030846451D
:1006100003D8A8EB06030F2B7EDCDFF82C91D7F86C
:100620000824D9F800300132334405EB080A00F001
:100630002F8103F580530F3323F47F6B2BF00F0BC7
:100640005946204600F012FB411C024600F0EF80A4
:10065000824500F2EA80D9F804105944C9F8041020
:100660000B4600F04B81D7F8081401311BBFA2EBF9
:100670000A0A5344C7F80824C9F8043012F00703E3
:1006800000F01281C3F108010A44C3F5805193447C
:100690000831A1EB0B01C1F30B0A51462046019230
:1006A000009300F0E3FA421CDDE9003200F04B81D8
:1006B000831A03EB0A0BD9F80400BA604BF001036C
:1006C0000AEB0001BD425360C9F8041000F022811A
:1006D000B8F10F0F40F220816B68A8F10C0020F0F8
:1006E000070003F0010303436B604FF0050C2B1868
:1006F0000F28C3E901CC00F22D8153681546D9F8C3
:100700002C208A42D9F8302038BFC9F82C108A42F0
:1007100038BFC9F830108CE0AA1943F0010346F045
:1007200001066E602046BA60536000F09DFA0835FD
:10073000284603B0BDE8F08FD9681A449DE600BF93
:100740004806002050060020BC0F0020B2F5206FA4
:100750004FEA522363D3142B00F2B88003F15C01FB
:10076000C9005B3307EB010E7958AEF1080E8E45D8
:1007700000F091804B6823F00303934202D989680B
:100780008E45F7D1D1F80CE07A68C5E9021ECEF8A3
:100790000850CD60DAE6142B59D9542B00F29E8014
:1007A000330B03F16F0003F16E0CC3008EE60EF104
:1007B000010E1EF0030F05F108057FF4D9AE51E0DC
:1007C000424445465368D8F80C1043F00103536087
:1007D00055F8083F2046D9608B6000F045FAF7E6EF
:1007E000F00806F108023BE62A442046536843F02D
:1007F00001035360083500F037FAE9E6A9192046ED
:1008000046F0010643F001046E60C7E90411C1E936
:1008100002CC4C60AB5000F027FA0835D8E69309BB
:1008200003F13901C90038339CE7BD4260D0BD688F
:100830006B6823F0030B5E45ABEB060302D80F2B6E
:100840003FF76AAF204600F00FFA0025C0E603F13B
:100850005C0003F15B0CC30038E659F808394B45DE
:1008600040F0968010F0030F00F1FF30F5D17B6867
:1008700023EA01037B60490099423FF6C4AE19B9EF
:10088000C1E649000EF1040E1942FAD070466BE63B
:1008900003F1100BD4E69A104FF001087B6808FAB8
:1008A00002F21A437A6070E702EB0B014942C1F38E
:1008B0000B0A514620460193009200F0D7F9431CE1
:1008C000DDE900237FF4F4AE9A46F4E6542B26D8F3
:1008D000130B03F16F01C9006E3343E7B3F5AA7F31
:1008E00026D8F30B03F1780003F1770CC300EDE594
:1008F000D9F804305B44C9F80430B4E6CAF30B00FD
:1009000000287FF4B0AEBD6808EB0B0343F0010391
:100910006B60F4E61546F2E60123536092E7B3F507
:10092000AA7F21D8D30B03F17801C900773319E7E7
:1009300040F25452934221D8B30C03F17D0003F1ED
:100940007C0CC300C2E5083B9B44ABEB020B4FF0B1
:10095000000AB0E605F10801204604F065FCBD6818
:10096000D9F804106B68CAE640F254518B420BD898
:10097000930C03F17D01C9007C33F3E64FF47E73E1
:100980007F204FF07E0CA1E54FF47E717E23E9E6D7
:100990007B6870E7844641EA000313F003036DD1DE
:1009A000403A41D351F8043B40F8043B51F8043B32
:1009B00040F8043B51F8043B40F8043B51F8043B39
:1009C00040F8043B51F8043B40F8043B51F8043B29
:1009D00040F8043B51F8043B40F8043B51F8043B19
:1009E00040F8043B51F8043B40F8043B51F8043B09
:1009F00040F8043B51F8043B40F8043B51F8043BF9
:100A000040F8043B51F8043B40F8043B51F8043BE8
:100A100040F8043B51F8043B40F8043B51F8043BD8
:100A200040F8043B403ABDD2303211D351F8043B78
:100A300040F8043B51F8043B40F8043B51F8043BB8
:100A400040F8043B51F8043B40F8043B103AEDD227
:100A50000C3205D351F8043B40F8043B043AF9D278
:100A6000043208D0D2071CBF11F8013B00F8013B4B
:100A700001D30B8803806046704700BF082A13D358
:100A80008B078DD010F003038AD0C3F10403D21A70
:100A9000DB071CBF11F8013B00F8013B80D331F8A4
:100AA000023B20F8023B7BE7043AD9D3013A11F824
:100AB000013B00F8013BF9D20B7803704B7843708F
:100AC0008B7883706046704788420DD98B188342BB
:100AD0000AD900EB020CBAB1624613F801CD02F854
:100AE00001CD9942F9D170470F2A0ED8034602F181
:100AF000FF3C4AB10CF1010C013B8C4411F8012B75
:100B000003F8012F6145F9D1704740EA01039B07C3
:100B100050D1A2F1100370B501F1200C23F00F05A4
:100B200001F1100E00F11004AC441B095EF8105CDA
:100B300044F8105C5EF80C5C44F80C5C5EF8085CF1
:100B400044F8085C5EF8045C44F8045C0EF1100E96
:100B5000E64504F11004E9D1013312F00C0F01EB6A
:100B6000031102F00F0400EB031327D0043C24F020
:100B700003064FEA940C1E441C1F8E465EF8045B6D
:100B800044F8045FB442F9D10CF1010402F003020D
:100B900003EB840301EB840102F1FF3C4AB10CF149
:100BA000010C013B8C4411F8012B03F8012F614526
:100BB000F9D170BD02F1FF3C03469BE72246EBE70B
:100BC000830730B548D0541E002A3FD0CAB203462E
:100BD00001E0013C3AD303F8012B9D07F9D1032C26
:100BE0002DD9CDB245EA05250F2C45EA054536D964
:100BF000A4F1100222F00F0C03F1200EE6444FEA9C
:100C0000121C03F1100242E9045542E90255103268
:100C10007245F8D10CF1010214F00C0F03EB021233
:100C200004F00F0C13D0ACF1040323F003030433DE
:100C3000134442F8045B9342FBD10CF003042CB143
:100C4000CAB21C4403F8012B9C42FBD130BD644660
:100C50001346002CF4D1F9E703461446BFE71A46C1
:100C6000A446E0E7704700BF704700BF38B5074DA6
:100C70000022044608462A6018F0B6FC431C00D047
:100C800038BD2B68002BFBD0236038BDF00F00204F
:100C900038B5D0F8DC420CB1002038BD80210546C3
:100CA000FFF7CEFB0246C5F8DC0230B1031F7C32F1
:100CB00043F8044F9342FBD1EEE74FF0FF3038BDCD
:100CC0001F29F8B5054609D8D0F8DC620C4617464E
:100CD0004EB156F8240046F82470F8BD1623036080
:100CE0004FF0FF30F8BD8021FFF7AAFB0646C5F89C
:100CF000DC0240B1031F00F17C05002143F8041F12
:100D00009D42FBD1E5E74FF0FF30F8BD1F2938B514
:100D1000054621D8D0F8DC220C466AB152F82130C1
:100D200053B1012B16D0591C10D00025204642F893
:100D300024509847284638BD284600F003F922463B
:100D400001462846BDE8384000F0E6B816230360A7
:100D5000012038BD002038BD162303604FF0FF305E
:100D600038BD00BF1F292CD8D0F8DC2238B50C467E
:100D7000054682B152F8243002EB84024BB1591C73
:100D80001AD0012B16D0002520461560984728461A
:100D900038BD012038BD8021FFF752FB0246C5F85F
:100DA000DC0258B1031F00217C3043F8041F984235
:100DB000FBD1DFE7032038BD022038BD4FF0FF3004
:100DC00038BD4FF0FF30704738B5154B1F281D68F0
:100DD00020D8D5F8DC22044662B152F820304BB15D
:100DE000012B15D0591C0FD0002542F820509847F0
:100DF000284638BD284600F0A5F822460146284678
:100E0000BDE8384000F088B816232B60012038BDBB
:100E1000002038BD16232B604FF0FF3038BD00BFD7
:100E200018020020134B1F2870B51E6809D80D4604
:100E3000D6F8DC12044649B151F8240041F8245098
:100E400070BD162333604FF0FF3070BD80213046F7
:100E5000FFF7F6FA0146C6F8DC0240B1031F00F1C5
:100E60007C0C002243F8042F6345FBD1E4E74FF0EC
:100E7000FF3070BD1802002038B50C4B1D68D5F846
:100E8000DC420CB1002038BD80212846FFF7D8FA9B
:100E9000C5F8DC0238B1031F00F17C0243F8044FAF
:100EA0009342FBD1EEE74FF0FF3038BD180200202F
:100EB00038B5184B1F281D6828D8D5F8DC22044601
:100EC00082B152F8243002EB84024BB1591C1BD082
:100ED000012B17D00025204615609847284638BDBD
:100EE000012038BD80212846FFF7AAFA0246C5F83E
:100EF000DC0258B1031F00217C3043F8041F8342F9
:100F0000FBD1DEE7032038BD022038BD4FF0FF30B3
:100F100038BD00BF1802002070B50C46084D0346CE
:100F20000026204611461C462E600CF03DFD431C59
:100F300000D070BD2B68002BFBD0236070BD00BFBC
:100F4000F00F00200CF020BD08B410B5002A9DB0B1
:100F5000044633DB4FF40273ADF81430029106916E
:100F600020AB17D0013A4FF6FF7104920792ADF80B
:100F700016101F9A019302A900F032FB421C01DAFD
:100F80008B232360029B00221A701DB0BDE8104025
:100F900001B070474FF6FF7104920792ADF816103A
:100FA0001F9A019302A900F01BFB431C01DA8B235B
:100FB00023601DB0BDE8104001B070478B23036073
:100FC0004FF0FF30F5E700BF0CB410B51F4B002900
:100FD0001C689CB035DB4FF40273ADF814300290FE
:100FE00006901FAB18D001394FF6FF72049107919C
:100FF000ADF8162002A91E9A0193204600F0F0FADF
:10100000421C01DA8B232360029B00221A701CB061
:10101000BDE8104002B070474FF6FF72049107918F
:10102000ADF8162002A91E9A0193204600F0D8FAC6
:10103000431C01DA8B2323601CB0BDE8104002B0D2
:1010400070478B2323604FF0FF30F5E71802002034
:101050000EB410B59FB021AC4FF4017154F8042BBD
:101060000192ADF81C100490089000F009FA059068
:1010700009900B480B490C9100234FF6FF7C10930D
:101080001593019A0068ADF81EC0234604A9039485
:1010900001F004FD1FB0BDE8104003B0704700BF71
:1010A00018020020251100080CB430B59FB022AC06
:1010B0004FF4017354F8042B019205460846ADF82D
:1010C0001C300491089100F0DBF90C490C910346A7
:1010D000059309934FF6FF71002310931593ADF814
:1010E0001E10019A03942846234604A901F0D6FC59
:1010F0001FB0BDE8304002B0704700BF25110008A6
:1011000010B50C46B1F90E1005F072FA002803DB99
:10111000236D0344236510BDA38923F48053A38169
:1011200010BD00BF002070472DE9F0410C46B1F919
:101130000C101F46CB05054616460BD421F48051F2
:10114000A1813B46B4F90E1032462846BDE8F04175
:1011500002F040BDB4F90E100223002204F084FB1B
:10116000B4F90C10EAE700BF10B50C46B1F90E1047
:1011700004F07AFBA389421C0EBF23F4805343F48E
:1011800080532065A38110BDB1F90E1002F0D6BDC9
:10119000000000000000000000000000000000004F
:1011A000A2EB0300704700BF02780B78012A28BF2A
:1011B0009A42F5D16DE9044540EA0104CDE90267A0
:1011C0006FF0000C4FEA447212B380EA010414F08D
:1011D000070F6AD100F0070420F0070004F00305B0
:1011E00021F007014FEAC505F0E8042314F0040FCD
:1011F000F1E804670CFA05F462EA040266EA040600
:101200000AD063EA0403624667EA0407664603E01D
:10121000F0E80423F1E8046782FA4CF582EA060458
:10122000A4FA8CF46CBB83FA4CF583EA0705A5FAA3
:101230008CF595B950E9022351E9026782FA4CF521
:1012400082EA0604A4FA8CF483FA4CF583EA0705D3
:10125000A5FA8CF52543DBD09CB92DBAB5FA85F4F7
:1012600024F0070427FA04F1DDE9026723FA04F306
:1012700003F0FF0001F0FF01FDE80445A0EB0100D1
:10128000704724BAB4FA84F424F0070426FA04F16F
:10129000DDE9026722FA04F202F0FF0001F0FF012B
:1012A000FDE80445A0EB0100704714F0030F3CD1AA
:1012B00010F0030428D150F8082B51F8083B82FAAB
:1012C0004CF582EA0305A5FA8CF55DB950F8042CBB
:1012D00051F8043C82FA4CF582EA0305A5FA8CF534
:1012E000002DE8D02DBAB5FA85F424F0070423FACE
:1012F00004F122FA04F202F0FF0001F0FF01FDE820
:101300000445A0EB010070474FEAC40420F003003D
:1013100050F8082B21F0030151F8083B0CFA04F4B3
:1013200062EA040263EA0403C9E710F003041AD076
:10133000A1EB040120F00300E40750F8042B06D0D1
:101340000FD28B785FFAA2F4E41A06D12BB1CB78D6
:101350005FFAB2F4E41A00D11BB920465DF8104BD5
:10136000704701F1040150F8042BCC0721F0030170
:1013700051F8043B48D824D222F07F4482FA4CF53D
:1013800094EA1325A5FA8CF50AD165B951F8043B06
:1013900084EA0204B4EB036F0ED150F8042BEBE7A0
:1013A0004FEA132355E035F07F454DD10878FDE82D
:1013B0000445C0F1000070474FEA126203F0FF03DA
:1013C00047E002EA1C4482FA4CF594EA1345A5FA78
:1013D0008CF50AD165B951F8043B84EA0204B4EBF8
:1013E000034F0CD150F8042BEBE74FEA134330E0E6
:1013F00015EA1C4528D10B884FEA124229E04FEA32
:10140000124203EA1C4324E002F0FF0482FA4CF586
:1014100094EA1365A5FA8CF50AD165B951F8043B35
:1014200084EA0204B4EB032F09D150F8042BEBE754
:101430004FEA13630DE015F0FF0F05D10B684FEA7B
:10144000122223F07F4304E04FF00000FDE8044542
:10145000704712BA1BBA82FA4CF482EA0304A4FA67
:101460008CF5B5FA85F402FA04F203FA04F34FEAB4
:101470001260FDE80445A0EB136070470000000017
:1014800090F800F06DE9024520F007016FF0000CC4
:1014900010F0070491F820F040F049804FF000046C
:1014A0006FF00700D1E9002391F840F000F1080047
:1014B00082FA4CF2A4FA8CF283FA4CF3A2FA8CF37F
:1014C0004BBBD1E9022382FA4CF200F10800A4FAE6
:1014D0008CF283FA4CF3A2FA8CF3E3B9D1E904233A
:1014E00082FA4CF200F10800A4FA8CF283FA4CF371
:1014F000A2FA8CF37BB9D1E9062301F1200182FA2B
:101500004CF200F10800A4FA8CF283FA4CF3A2FA30
:101510008CF3002BC6D0002A04BF04301A4612BA3E
:10152000B2FA82F2FDE8024500EBD2007047D1E941
:10153000002304F00305C4F100004FEAC50514F0D0
:10154000040F91F840F00CFA05F562EA05021CBFA1
:1015500063EA050362464FF00004A9E7A2B330B581
:1015600040EA0104A40784460B462AD09CF80000F8
:101570000C7884422FD1012A0DD0E64660B11EF8C6
:10158000010F11F8014F6FEA0E03A042134422D15C
:101590001CEB0303F2D1002030BD0468194653F858
:1015A000045BA4F1013EAC4284462EEA040E00F135
:1015B00004000BD1043A84461946ECD01EF0803F5B
:1015C000E9D1032AE9D8D1E7104670479CF800001A
:1015D0000C78A042D1D0001B30BD00BF000000003D
:1015E0002DE9F04F2DED068BBBB08846914609934F
:1015F00009EE100A04F030F9036810931846FFF75B
:101600003FFFB8F80C300F90180604D5D8F810300A
:10161000002B00F0E7869FED867B0023CDE91E338B
:101620008DED0C7B2AAA0B931D9292460E9311937B
:10163000069399F80030002B00F087814C4604E0B7
:1016400014F8013F002B00F0C580252BF8D1B4EB36
:10165000090540F0C3802378002B00F07681002339
:101660004FF0FF3265788DF8573004F101091846C4
:10167000059207939B4609F10109A5F12002582A1A
:1016800000F2DA80DFE812F05E02D800D8005902DA
:10169000D800D800D800D800D800D8000C025402D6
:1016A000D80017021C02D8004F02590059005900F7
:1016B000590059005900590059005900D800D80064
:1016C000D800D800D800D800D800D800D800D8005A
:1016D00036026C01D8006C01D800D800D800D800C0
:1016E0006602D800D8007800D800D800D800D8000A
:1016F000D8006800D800D8007902D800D800D800F7
:10170000D800D800D800D800D800D800D8006B0284
:10171000CF016C016C016C019A02CF01D800D80096
:101720000E03D800F8027A00DD02D802D800B60213
:10173000D8006A00D800D8009F02A5F1300200212D
:1017400019F8015B01EB810102EB4101A5F13002C7
:10175000092AF5D9079190E74BF0100B1BF02001F7
:1017600000F05381099B073323F00703596853F8AE
:10177000080B099301230EE04BF0100B1BF0200126
:1017800000F03681099B073323F00703596853F8AB
:10179000080B0993002300248DF85740059A561C26
:1017A00000F08F822BF08006039650EA010640F08D
:1017B0008682002A40F00E83002B40F03C851BF00F
:1017C0000103089300F0AF8530238DF8A7300DF1A9
:1017D000A7069BE2B4EB090500F0B7801F9B2B44E2
:1017E0001F931E9B0133072BCAE900951E9305DC4E
:1017F0000AF1080A069B2B4406932CE719EE100AFF
:101800001DAA414606F038FD18B90DF1A80AF1E706
:10181000B046B8F80C3013F0400F069B18BF4FF0DD
:10182000FF33069306983BB0BDEC068BBDE8F08F06
:101830000000000000000000002B40F0E987002DB0
:1018400000F0838000238DF8573001238DF88050FD
:101850000493089320AE0023CDF80CB005930A93AF
:10186000039B13F0020302D0049A02320492039AFB
:1018700012F0840B05D1079A0499571A002F00F330
:10188000A0831F9C9DF857208AB11E9A0DF1570125
:1018900001320134CAF80010072A4FF001011F94E9
:1018A0001E92CAF8041000F3D9830AF1080A83B122
:1018B0001E9B16AA01330234CAF80020072B4FF0F2
:1018C00002021F941E93CAF8042000F3D6830AF183
:1018D000080ABBF1800F00F09982059B089AA3EBE0
:1018E000020BBBF1000F00F3D482039BDF0500F174
:1018F0001682089BCAF804301C441E9BCAF800607C
:101900000133072B1F941E9300F34E830AF1080A3C
:10191000039B5B0705D5079B049A9D1A002D00F3D6
:10192000B983DDE9063204998A42ACBF9B185B1883
:101930000693002C40F0E88200231E9399F80030B3
:101940000DF1A80A002B7FF479AE1F9B002B3FF40A
:1019500060AF19EE100A1DAA414606F08DFC58E74B
:10196000002B41F00680099B073323F00703B3ECFB
:10197000027B8DED0C7BDDE90C67099327F00043BA
:1019800008EE903A08EE106AB64B51EC180B4FF087
:10199000FF320AF087FC002840F0C784B14B51ECBD
:1019A000180B4FF0FF320AF05FFC002840F0BD84B6
:1019B00000220023304639460AF04CFC002840F053
:1019C000FC869DF85740A84E2BF080030393A74B4D
:1019D0000022472DC8BF1E460323CDE904320893D9
:1019E0000A92002C3FF43CAF049B0133049337E789
:1019F0001BF0100348D11BF0400145D0099A52F862
:101A0000040B0992194680B2C5E61BF0100341D1C0
:101A10001BF040013ED0099A52F8040B0992194676
:101A200080B20123B7E6002B40F0A7871BF0200F00
:101A3000099B68D0073323F007031A465B6852F806
:101A4000080B09921946002BC0F23D84059B013317
:101A500000F085852BF08003039350EA01039DF885
:101A6000574000F0E483DDF80CB00A2871F1000360
:101A700080F01085303001238DF8A700CDF80CB030
:101A800008930DF1A70641E1099B53F8040B099354
:101A90000B4680E6099B53F8040B099301237AE671
:101AA000099A52F8041B0791002980F2378407999C
:101AB00009924942079199F800504BF0040BDAE57E
:101AC000494611F8015B2A2D00F0C787A5F13002C5
:101AD000092A894698BF002100F23B8719F8015B6B
:101AE00001EB810102EB4101A5F13002092AF5D990
:101AF0000591C2E5002B40F044874BF0100B1BF022
:101B0000200F099B96D153F8040B09931BF0100F7B
:101B100040F0D4831BF0400F00F0D08340F3C0317D
:101B20000B4600B28FE799F800504BF0800BA2E50E
:101B300099F8005001232B209DE599F800504BF0B7
:101B4000010B98E599F8005000287FF494AD01232B
:101B5000202090E599F800504BF0080B8BE5099B8D
:101B600000228DF8572053F8042B099301238DF898
:101B700080200493089320AE6DE6002B40F0F186A0
:101B80003B4B0E931BF0200125D0099B073323F01C
:101B90000703596853F8080B09931BF0010F0BD08A
:101BA00050EA010308D030238DF858308DF8595091
:101BB0004BF0020B0223EEE50223ECE599F800500E
:101BC0004BF0400B57E5002B40F0C786294B0E9396
:101BD0001BF02001D9D11BF0100340F06A831BF0E9
:101BE000400100F06683099A52F8040B09921946E5
:101BF00080B2D2E7099C059B54F8046B00278DF84E
:101C00005770002E00F0E5845A1C00F0FC831A4641
:101C10003946304603F04CFF002800F08286831BD3
:101C2000089323EAE373099405979DF85740CDF88C
:101C30000CB004930A97D4E699F800504BF0200BAF
:101C400019E5099B53F8040B0993302378258DF887
:101C50005830084B0E934BF0020B8DF85950002171
:101C6000022398E5FFFFEF7F58DB04085CDB0408E4
:101C70002CAE030868DB0408002B40F076861BF0CE
:101C8000200F40F099831BF0100F40F0F5831BF0FC
:101C9000400F00F0F183099B069953F8042B099338
:101CA0001180C6E499F800506C2D03BF99F80150DB
:101CB0004BF0200B09F101094BF0100BDBE4DDF8D0
:101CC0000CB0012B3FF4D1AE022B00F08B802AAE7A
:101CD00000F00703C00840EA4170C908303350EAF9
:101CE0000107324606F8013DF2D11BF0010F00F06A
:101CF0008780302B00F084803023023A06F8013CC4
:101D00002AAB9B1ACDF80CB008931646059B089A8F
:101D10009342B8BF1346049300230A9361E6652DEE
:101D200040F3FC80DDE90C01002200230AF088FA70
:101D3000002800F0EA811E9BAA4ACAF8002001335D
:101D400001340122072B1F941E93CAF8042000F3CC
:101D500016840AF1080A179B0B9A934203DB039B34
:101D6000D8077FF5D5AD0F9B109A1C44CAE9002314
:101D70001E9B1F940133072B1E9300F31C840AF152
:101D8000080A0B9B5D1E002D7FF7C2AD102D1E9B18
:101D9000954F40F3E88319EE10BA102605E00AF1DA
:101DA000080A103D102D40F3DE8301331034072B59
:101DB000CAE90076CDE91E34F1DD1DAA4146584638
:101DC00006F05AFA00287FF424ADDDE91E340DF147
:101DD000A80AE6E7012B00F06F85022BDDF80CB0B6
:101DE0007FF475AF0E9A2AAE00F00F030009D35CA2
:101DF00006F8013D40EA0170090950EA0103F3D1F8
:101E00002AAB9B1BCDF80CB008937FE7079B049A85
:101E1000A3EB020BBBF1000F7FF75FADBBF1100F1F
:101E20001E9A714F27DD2146102319EE104A06E055
:101E3000ABF1100BBBF1100F0AF1080A1ADD0132E9
:101E40001031072ACAE90073CDE91E21F0DD1DAA71
:101E5000414620460DF1A80A06F00EFA00287FF44C
:101E6000D8ACABF1100BBBF1100FDDE91E214FF028
:101E70001003E4DC0C4601325C44072ACDE91E2441
:101E8000CAF80070CAF804B000F387830AF1080AA0
:101E900023E5BBF1100F1E9A534F27DD2146102377
:101EA00019EE104A06E0ABF1100BBBF1100F0AF16E
:101EB000080A1ADD01321031072ACAE90073CDE998
:101EC0001E21F0DD1DAA4146204606F0D5F9002866
:101ED0007FF49FACABF1100BBBF1100FDDE91E21BD
:101EE0000DF1A80A4FF01003E4DC0C4601325C440B
:101EF000072ACDE91E24CAF80070CAF804B000F31E
:101F0000CA810AF1080AF0E419EE100A1DAA414636
:101F100006F0B2F900283FF40FAD7AE40B9B012BD9
:101F200040F366811E9DCAF800600135013401232B
:101F3000072D1F941E95CAF8043000F3CE810AF1D4
:101F4000080A0F9B109A01351C44072DCAE900238B
:101F5000CDE91E5400F3D4810AF1080ADDE90C0131
:101F6000002200230AF06CF9002840F069810B9BE5
:101F70000135013B01361C44072DCAF800601E954F
:101F8000CAF804301F9400F344810AF1080A119B37
:101F9000CAF8043001351C44072D19ABCDE91E5495
:101FA000CAF800307FF7B2AC19EE100A1DAA4146FC
:101FB00006F062F900287FF42CAC1F9C0DF1A80AF2
:101FC000A6E4102FDDE91E2139DD1293CDF84C90E7
:101FD0001024B1460B464646B8462F4619EE105A15
:101FE0000BE000BF80B3040894A10308A8F1100817
:101FF000B8F1100F0AF1080A19DD0132BE49103399
:10200000072ACAE90014CDE91E23EFDD1DAA3146D7
:1020100028460DF1A80A06F02FF900287FF4F8AB46
:10202000A8F11008B8F1100FDDE91E23E5DC3D46EC
:1020300019464746129BB0464E46DDF84C90CAF80A
:10204000047001327C18072AAB49CAF80010CDE9A8
:102050001E2400F374820AF1080A13E419EE100A30
:102060001DAA4146129306F007F900287FF4D1AB70
:102070001F9C129B0DF1A80A19E419EE100A1DAA63
:10208000414606F0F9F800287FF4C3AB1F9C0DF120
:10209000A80A1EE4102D1E9B20DD19EE107A1026D2
:1020A00004E0103D102D0AF1080A17DD0133924AB1
:1020B0001034072BCAE90026CDE91E34F1DD1DAA34
:1020C000414638460DF1A80A06F0D6F800287FF4FC
:1020D000A0AB103D102DDDE91E34E7DC0133864A4C
:1020E000CAF804502C44072BCDE91E34CAF800204E
:1020F0007FF717AC19EE100A1DAA414606F0BCF88E
:1021000000287FF486AB1F9C0BE41799002940F34D
:10211000E181DDE90A379F42A8BF1F46002F0BDD92
:102120001E9B01333C44072BCAE900671F941E9392
:1021300000F3D7830AF1080A0A9D002FA8BFED1B00
:10214000002D00F37081179D0B9B9D4280F23E8114
:102150000F9B109A1C44CAE900231E9B1F94013355
:10216000072B1E9300F344830AF1080A0B9B0A9A7B
:102170005D1B9F1AAF42A8BF2F46002F0EDD1E9B8E
:10218000CAF80470013316443C44072BCAF80060B7
:102190001F941E9300F3B5830AF1080A002FA8BF0D
:1021A000ED1B002D7FF7B4AB102D1E9B534F40F35A
:1021B000DA8119EE10BA102605E00AF1080A103D7E
:1021C000102D40F3D08101331034072BCAE900767B
:1021D000CDE91E34F1DD1DAA4146584606F04CF803
:1021E00000287FF416ABDDE91E340DF1A80AE6E7FE
:1021F000039BDA073FF596AE1E9DCAF800600135D5
:1022000001340123072D1F941E95CAF804307FF76F
:10221000BCAE19EE100A1DAA414606F02DF80028A2
:102220007FF4F7AADDE91E540DF1A80AAFE6059B7D
:10223000002B40F041830023059308932AAE65E507
:102240000B9B5E1E002E7FF7A2AE102E2B4F40F38D
:10225000CB81CDF814904FF0100B19EE109A05E0D9
:102260000AF1080A103E102E40F3BC8101351034EB
:10227000072DCAE9007BCDE91E54F1DD1DAA4146B8
:10228000484605F0F9FF00287FF4C3AADDE91E5493
:102290000DF1A80AE6E719EE100A1DAA414605F05D
:1022A000EBFF00287FF4B5AA1F9C0DF1A80AFFF7E9
:1022B0001CBB099B53F8040B09936EE4C1170B4632
:1022C000002BBFF6C3AB40424FF02D0461EB410140
:1022D0008DF857400123FFF761BA19EE100A1DAAC5
:1022E000414605F0C9FF00287FF493AADDE91E549A
:1022F0000DF1A80A25E600BF84A1030894A10308F4
:1023000019EE100A1DAA414605F0B6FF00287FF419
:1023100080AADDE91E540DF1A80A1FE699F80050C5
:102320000992FFF7A8B92AAEF0E4DDE90C010246F4
:102330000B4609F0B7FF002840F05183059B01339D
:1023400025F02003049300F0D982472B00F09C80F5
:10235000DDE90C014BF4807200290392C0F2328255
:102360009DED0C7B0027B0EE47AAF0EE67AA662D24
:1023700000F07A81462D00F07781B0EE4A0AF0EE47
:102380006A0A049B452B0ABF059B059C5C1C1BAB82
:10239000019318AB009319EE100A17AB22460221E5
:1023A00001F072FD672D064640F092821BF0010F8E
:1023B00000F0AC8134446FE1099B069853F8041B8C
:1023C0000993C217C1E90002FFF733B9039BD9078C
:1023D0003FF5BEAEDDE90A239F1A5D1BAF42A8BFE1
:1023E0002F46DBE619EE100A4021FEF729F8C8F85F
:1023F0000000C8F81000002800F03E834023C8F811
:102400001430FFF708B9304609940597CDF80CB0A1
:10241000FFF736F820EAE0739DF8574008900493E0
:102420000A97FFF7DEBA102D1E9BB54F40F3B88117
:102430003A460596474619EE106A4FF0100B904643
:1024400005E00AF1080A103D102D40F3A581013383
:102450001034072BCAE9008BCDE91E34F1DD1DAA2B
:102460003946304605F008FF002840F0A782DDE934
:102470001E340DF1A80AE6E7099B069953F8042BD0
:1024800011600993FFF7D5B8059B002B08BF012306
:1024900005935DE7CDF80C902AAEA1460A220023F1
:1024A00004460F460AF00AF9303206F8012D0023DF
:1024B000204639460A220AF001F90A2C77F1000376
:1024C000ECD22AAB9B1B4C460893DDF80C90CDF860
:1024D0000CB01BE41E9B8B4ACAF800200133013468
:1024E0000122072B1F941E93CAF8042000F3728167
:1024F0000AF1080A002940F08380039B0B9A03F03D
:10250000010313433FF404AA0F9B10991A19CAE957
:1025100000131E9B1F920133072B1E9300F37C8137
:102520000AF1080A0B99CAF8006001338C18072BCE
:10253000CDE91E34CAF804107FF7E8A934E519EE96
:10254000100A1DAA4146129305F096FE00287FF45A
:1025500060A91F9C129B0DF1A80AFFF793B99DF883
:102560005740FFF782BA01332C44072BCAF800709A
:10257000CAF80450CDE91E347FF7C8A914E519EE56
:10258000100A1DAA414605F077FE00287FF441A9F4
:102590001F9C0DF1A80AFFF7DEBB19EE100A1DAA59
:1025A000414605F069FE00287FF433A91F9C0DF118
:1025B000A80AFFF792B919EE100A1DAA414605F0C4
:1025C0005BFE00287FF425A91F9C0DF1A80AFFF7E8
:1025D000D8BB062B28BF0623CDE908344A4E049306
:1025E000FFF739B9DDF81490CAF8007001353444AA
:1025F000072DCDE91E54CAF804607FF7C6AC08E683
:102600000F9B10981A19CAE900031E9B1F920133F1
:10261000072B1E9300F300810AF1080A002981DAD2
:102620004D421031364F80F2B08119EE10BA1024AD
:1026300005E00AF1080A103D102D40F3A681013390
:102640001032072BCAE90074CDE91E32F1DD1DAA54
:102650004146584605F010FE00287FF4DAA8DDE96F
:102660001E320DF1A80AE6E7059CB0EE4A0AF0EE2C
:102670006A0A1BAB019318AB0093224617AB19EE05
:10268000100A032101F000FC064604193378302BB0
:1026900000F09781179B1C4451EC1A0B0022002379
:1026A00009F0CEFD002840F0B1801B9BA34206D26A
:1026B00030215A1C1B9219701B9B9C42F9D89B1B02
:1026C0000B93049B472B28D0662D40F0DE81179B8F
:1026D000059A0A93002B0BF0010B40F3F1805BEAA3
:1026E000020140F09F810A9B04930893002F00F0A1
:1026F000F3802D238DF8573000230593FFF774B92D
:1027000094A1030880B304087CDB04081B9B9B1B7B
:102710000B93049B472B40F0B881179B0A93D91C5D
:1027200011DB059A93420EDCDDE90A329342C0F2D6
:1027300004811BF0010F40F0638123EAE3720492ED
:1027400008936725D2E7023D0A9A8DF86450531E1C
:10275000002B1793B6BFC2F101032B222D22092BA8
:102760008DF8652074DC30338DF8673030238DF8B8
:102770006630042311930B9A119B012A134408938A
:1027800040F34781089B0F9A1344089323EAE373AD
:10279000049300230A93A9E74246059EB8461746CC
:1027A00001332C44072BCDE91E34CAF80070CAF857
:1027B000045040DC0AF1080AC5E42D248DF8574086
:1027C000FFF701B901F100430AEE100A0AEE903A50
:1027D0002D27CCE519EE100A1DAA414605F04CFD47
:1027E00000287FF416A817991F9C0DF1A80A81E60E
:1027F00019EE100A1DAA414605F03EFD00287FF49F
:1028000008A8179D1F9C0DF1A80AAFE4234656E7C0
:102810008DF85700FFF713B819EE100A1DAA4146AC
:1028200005F02AFD00287EF4F4AFDDE91E32179989
:102830000DF1A80AF2E619EE100A1DAA414605F0AC
:102840001BFD00287EF4E5AF1F9C0DF1A80A7AE479
:102850000DF17304DFF840C2224610468CFB0321C1
:10286000DA17C2EBA10202EB8201A3EB4101303186
:1028700000F8011C19466329134600F1FF32ECDC15
:102880003033D9B2831E9C4202F8011C40F2F18021
:1028900013460DF1660201E013F8011B02F8011B5B
:1028A0009C42F9D10DF175030DF166021B1A134418
:1028B00019AA9B1A11935EE7DDF80CB0FFF7DAB89E
:1028C0005BEA020340F0B6800123049308930DE70E
:1028D000472D3FF46BAD6DE59DF857400597FFF729
:1028E00080B819EE100A1DAA414605F0C5FC002863
:1028F0007EF48FAF1F9C0DF1A80A1DE406230593FB
:1029000026E519EE100A1DAA414605F0B5FC00287F
:102910007EF47FAF179D0B9B1F9C5D1B0DF1A80ADA
:102920003CE4059B0994CDF80CB09DF85740049306
:10293000089305900A90FFF754B80F9A0B9B134425
:102940000A9A0893002A7DDD23EAE373049367253E
:10295000CCE600220592FEF790BE8DF85700FFF7F7
:1029600035B98DF85700FFF70BB98DF85700FFF711
:1029700086B98DF85700FEF7F6BF8DF85700FFF7C0
:1029800055B88DF85700FFF7B8B801332A44072B24
:10299000CDE91E32CAF80070CAF804507FF7C0AD06
:1029A00019EE100A1DAA414605F066FC00287EF4C7
:1029B00030AFDDE91E320DF1A80AB3E5B846FEF7E7
:1029C00028BF51EC1A0B0022002309F039FC002823
:1029D0007FF460AE059BC3F1010317935BE60D9B8B
:1029E0002B4E002BB8BF2D242BF080030393A8BFE0
:1029F0009DF85740274BB8BF8DF85740FEF7E8BF0A
:102A00000A9B0F9A1344089323EAE3730493672500
:102A10006CE61BF001020A927FF4B4AE23EAE37382
:102A2000049363E60F990B441A4422EAE273089276
:102A300004935BE60F9B01331A4422EAE273089287
:102A4000049353E60A9B089AC3F101031A4422EA4D
:102A5000E27308920493672548E6099A99F80150B1
:102A6000894652F8041B099241EAE1710591FEF78B
:102A700002BE022311937EE619EE102A0C23136086
:102A80004FF0FF330693FEF7CDBE179B0A935BE62C
:102A900060DB040864DB0408676666662DE9F04FB6
:102AA0008B46B1F90C10ADF5317D8E04814608934B
:102AB00009D4DBF8643041F4005123F40053ABF83F
:102AC0000C10CBF8643092461AF8012B1392002AAE
:102AD00000F02A870023734F09930A9307939846BF
:102AE0000493BB5C13F0080372D1252A60D19AF8D5
:102AF00000001E461D46A0F125020AF10101532ADD
:102B000061D8DFE812F054006000600060006000EF
:102B1000710460006000600060006000AE00AE0004
:102B2000AE00AE00AE00AE00AE00AE00AE00AE0035
:102B30006000600060006000600060006000600095
:102B4000600060000D04BA006000BA006000600020
:102B500060006000320460006000040460006000F7
:102B6000600060006000600060006000A103600021
:102B7000600016046000600060006000600060009B
:102B8000600020040F04BA00BA00BA003C044604F6
:102B9000600060004D0460005A04060425046000D3
:102BA0006000280460002B0460006000A1038A46D6
:102BB000DBF80430002B3DDDDBF800301AF8012C87
:102BC0001978914225D004980DF5317DBDE8F08F3C
:102BD000DBF804200EE0DBF800301A78BA5C150749
:102BE00003F101030ED5DBF80420013ACBE90032F2
:102BF00008F10108002AEEDC5946484606F026F99D
:102C00000028E8D01AF8012B1392002A7FF469AF4C
:102C1000D9E70133CBF80030DBF80430013BCBF8C7
:102C200004301AF8012B139208F10108002A7FF4EE
:102C300058AFC8E75946484606F008F90028BBD007
:102C4000049A002A00F0CE86BBF80C3013F0400F37
:102C500018BF4FF0FF32049204980DF5317DBDE8A6
:102C6000F08F16F08F0FAED105EB850500EB450513
:102C7000303D9AF801008A463DE78A460424DBF895
:102C80000420002A40F3EE82720640F1F782621EB1
:102C9000032A00F2E786DFE812F0CC018701D300B7
:102CA000070000BFC9A103084846039302F0D4FD02
:102CB0006A1E03680D93B2F5AE7F039B40F2F48366
:102CC0006FF4AE7C05EB0C02109240F25D15002211
:102CD00058A946F4F0660B910C46CDF838A0594639
:102CE0001192CB460F9206920C9203969A46914609
:102CF00008680278A2F12B0CBCF14E0F50D8DFE827
:102D00001CF0E6014F00E6014F004F008C029700D7
:102D100097009700970097009700970097009700FB
:102D20004F004F004F004F004F004F004F00DF019A
:102D30004F004F004F00680261024F004F00070232
:102D40004F004F004F004F00EE014F004F004F006B
:102D50004F004F00D8014F004F004F004F00D101EE
:102D60004F004F004F004F004F004F004F00DF015A
:102D70004F004F004F00680261024F004F000702F2
:102D80004F004F004F004F00EE014F004F004F002B
:102D90004F004F00D8014F004F004F004F00D101AE
:102DA0000D9B93F800C0944516D1039B9E0513D547
:102DB00023F420730393069B0C9304F8012B013D2D
:102DC0004A68013A002A08F101084A6040F3258365
:102DD00001300860002D8BD14A46D9468B460699B2
:102DE000039E5346DDF838A0002940F05A83013A8B
:102DF000012A40F2E9855A1E062A00F2A281022B1E
:102E000040F21986032B00F09C81043BDBB2DD43CA
:102E10000393254414F8011D5A46484605F0D6FF91
:102E2000A542F7D1039B08F1FF38A8EB030888E11E
:102E300019EB0A0FD0D1039B23F4C0730393BCE7B3
:102E40006B1EB3F5AE7F40F222836FF4AE72AB1807
:102E5000069340F25D1558AC00235946D346C2464E
:102E6000DDF81C800B9446F4586603930A681078CA
:102E7000A0F12B034D2B60D8DFE813F03B025F007D
:102E80003B025F005F00BF02C901C901C901C9015E
:102E9000C901C901C901410241025F005F005F0031
:102EA0005F005F005F005F004E004E004E004E006E
:102EB0004E004E005F005F005F005F005F005F003C
:102EC0005F005F005F005F005F005F005F005F000A
:102ED0005F005F005F002E025F005F005F005F0029
:102EE0005F005F005F005F004E004E004E004E002E
:102EF0004E004E005F005F005F005F005F005F00FC
:102F00005F005F005F005F005F005F005F005F00C9
:102F10005F005F005F002E02B8F10A0F0DDD26F49E
:102F2000386604F8010B4B68013B002B4B6040F303
:102F3000808201320A60013D98D1F005CDF81C80F5
:102F4000D046DA468B4607D50B9B9C4200F2B084F4
:102F50000B9B9C423FF437AE16F0100240F07A8291
:102F60000B99079B099D22704846A847B10600F1BE
:102F70006982720700F1358416F0010240F0628226
:102F8000B30740F15F82AE4B099999424846079BCF
:102F90000B9900F03C8504F0B5FF089B53F8042B17
:102FA0000893C2E9000152E2002D08BF4FF0FF353F
:102FB000F10700F18382F10640F13183DBF8003044
:102FC0001A78BA5C12073FF51DAE0133CBF800301A
:102FD000DBF80430012D03F1FF33CBF8043008BFD8
:102FE00008F101083FF40EAE012412E0DBF80030D6
:102FF0001A78BA5C160703F1010312D4CBF800303B
:10300000DBF804300134013BA542CBF8043000F07A
:103010006784002BEADC5946484605F017FF002874
:10302000E4D0A0441AF8012B1392002A7FF459AD82
:10303000C9E5002D08BF4FF0FF35F20700F13783D7
:10304000F00640F1A182DBF8003018AE1A78B25CCD
:10305000002A3FF4B8AD0133CBF80030DBF8043080
:10306000012D03F1FF33CBF8043011D1D9E7DBF8A0
:1030700000301A78B25C0133002AD2D0CBF800308D
:10308000DBF804300134013BA542CBF80430C8D052
:10309000002BECDC5946484605F0D8FE0028E6D067
:1030A000A044BFE7BAF1070F7FF496AE4FF0080ACD
:1030B00083E6BAF1060F7FF48FAE4FF0070A7CE685
:1030C000B9F1010F7FF488AE4FF0020975E6039B5A
:1030D0001E067FF581AE23F0800303936DE6B9F100
:1030E000000F40F0CD81069B33B9039B03F4E06CE5
:1030F000BCF5E06F00F0FE83BAF1010F03D0BAF126
:10310000040F7FF469AE0AF1010A5FFA8AFA54E605
:10311000BAF1000F40F0AB81069B002B40F0BA8162
:10312000039B03F4E06CBCF5E06F00F0DC834A46DF
:10313000013A012AD946039EDDF838A08B4640F2B9
:103140004384F00513D5710500F1518414F8011C76
:10315000652904F1FF3308F1FF3502D0452940F01D
:1031600033835A464846A8461C4605F02FFE16F003
:1031700010027FF447AD06F4C063B3F5806F227090
:1031800000F09F830F9B002B40F0518300220B998E
:10319000484604F061FCF20755EC104B02D4B3072B
:1031A00040F12583089B53F8042BC2E9004508939E
:1031B000049B1AF8012B139201330493002A7FF425
:1031C00090AC00E5BAF1020F7FF406AE4FF0030AAF
:1031D000F3E5039B03F4A06CBCF5806F06D05E059D
:1031E0007FF5FAAD069B002B00F0E583039B9B0562
:1031F00004D4069B0C9E11949B1B0F93039B23F4FA
:10320000F06646F4C073039300230693D5E50D4B97
:1032100026F4386633F9188083E6039BDE057FF5D4
:1032200007AE23F080030393069B01330693109BA4
:10323000002B3FF4C4AD109B013B1093C0E500BFD1
:1032400075800008A4A1030846F40076984A099204
:1032500010220792DBF80420002A8A464FF003046C
:103260003FF712AD59464846039305F0EFFD039B27
:1032700000287FF4E5AC72063FF509ADDBF80010DD
:103280000A78BA5C10077FF502AD03935B460A46E5
:10329000C346A0461C4604E022601378FB5C190775
:1032A00014D56368013B002B0BF1010B636002F145
:1032B0000102F1DC2146484605F0C8FD002840F037
:1032C000F38122681378FB5C1907EAD42246039B3A
:1032D0004446D8469346DAE406F4C063B3F5007F6B
:1032E0007FF42BAE26F4007646F4A0664FF010086B
:1032F00017E633067FF521AE26F0800611E66D4B0A
:1033000033F91880B8F1080F3FF709AE15E646F01B
:103310000106674A099208228A4607920324AEE40E
:1033200046F00106644A09920A228A46079203245B
:10333000A5E418A8039303F05DFB46F04006039B49
:10334000824601249BE446F040068A46002496E427
:1033500046F408767AE78A46022490E4544A0992B1
:103360000A228A460792032489E430077FF42BACB3
:103370009AF8010046F002068A46FFF7BCBB320706
:103380007FF421AC9AF8010046F004068A46FFF764
:10339000B2BB494A099200228A46079203246EE48E
:1033A00034077FF410AC9AF801006C2800F090828A
:1033B00046F001068A46FFF79EBBF30600F1FE8148
:1033C000750700F12B82F40700F1B182B00740F1DC
:1033D000AE82089B53F8042B08934FEAE8738A46A1
:1033E000C2F8008053600DE435437FF4ECAB9AF8EB
:1033F000010010268A46FFF77EBB33057FF591ADAD
:10340000B8F1000F03D146F400764FF008087305B9
:1034100040F1C88126F4B06683E55846059105F071
:1034200015FD059900287FF4D7AC002D7FF460AC22
:10343000D2E44846059105F009FD059900283FF4BE
:103440007AAD7AE5089B53F8042B10600893049B2F
:10345000013304930B9B1AF8012B1392E41A039B7C
:1034600023449844002A7FF43CABFFF7ACBBBAF18D
:10347000030F3FF448AEBAF1050F3FF444AEABE49E
:10348000B9F1020F7FF438AE4FF0030995E4002341
:103490000693E0E45346039EDDF838A04A46D94639
:1034A0008B4626F48076A2E4002210920FE400BF3F
:1034B00075800008A4A103082D7D000816F01006F1
:1034C00040F07F81089B53F8042B03920893DBF8AC
:1034D00000301B78FB5C13F0080440F0DF81059698
:1034E000CDF818A002F090F9A0422E463FF4A8AB08
:1034F000DBE9003213F8011B013ACBE900320A9BE9
:1035000058A8032B015504F1010A16AD02D12B680E
:10351000042B04D0082200212846FDF751FB58AAAD
:10352000039900955346484602F054FA421C0A900B
:103530003FF486AB002840F0E481039A106002F06B
:1035400035F9002840F00B82D044013E059B002B4A
:1035500040F01882039A043203929A46DBF8043052
:10356000002B40F3ED81DBF800301B78FB5C180783
:1035700000F19281002E00F08F8102F045F954464F
:10358000A042B5D1FFF75CBBDBF8002008991378A7
:1035900051F8040B039018AE0591F35C002B3FF437
:1035A00012ABDBF80430013BCBF80430531CCBF8F2
:1035B00000300446137804F8013B012D21D0054466
:1035C00011E0DBF800301A78B25CD2B1DBF80420ED
:1035D000013ACBF804205A1CCBF800201B7804F8E1
:1035E000013BAC420DD0DBF80430002BE9DC59463E
:1035F000484605F02BFC0028E3D0039BA3423FF490
:103600001FAB039BE61A3FF4DEAA049B013304932D
:10361000059B08930023B0442370FFF7F3BA089B7F
:103620001A46DBF8003052F8046B03921A78BA5C41
:10363000100700F1EA81DBF80420013ACBF80420FE
:103640005A1CCBF8002034461B7804F8013B012DAE
:1036500000F0E181354412E0DBF800301A78BA5C02
:10366000110716D4DBF80420013ACBF804205A1CC9
:10367000CBF800201B7804F8013BAC4209D0DBF802
:103680000430002BE8DC5946484605F0DFFB0028F3
:10369000E2D0A61BB044049B01330493039B089320
:1036A00000232370FFF7AEBAA346FFF7C9BA16F09E
:1036B00010030B9340F09280089B53F8042B039265
:1036C0000893CDE905580A9CCDF830A0002602F0F9
:1036D0009BF8B0423FF4B4AADBE9003258A813F8D3
:1036E000011B8155013A032CCBE9003206F1010A96
:1036F0000DF1500803D1D8F80030042B04D0082273
:1037000000214046FDF75CFA039DCDF8008053464A
:1037100058AA2946484602F05DF9431C04463FF486
:103720008FAA002840F097802860054616AB082233
:10373000002118460A93FDF743FAB8490A9BD1F8CD
:10374000E0102A4648460D4612A9A847012800F075
:103750009A80002218AB9B5C002B00F01681069B20
:10376000032C5344069300F09180059B013B059385
:103770000B9B13B9039B04330393DBF80430002B3A
:103780004FF0000670DD059B002BA0D1DDF81880FE
:10379000DDF830A00A940B9B002B7FF433AA039A28
:1037A000136005E5069B26F4607613B1013B069392
:1037B0000135039B01330393FFF7B5BB8A46FFF73F
:1037C00021BA13AB039382E65A46484605F0FEFA47
:1037D000A8F1020514F8021CA31EC2E413AB039364
:1037E0006FE7089B53F8042B089310802FE6089E80
:1037F00056F8043B039310EE102A10EE100A2B46E5
:10380000294608F04FFD002840F00C81204629464B
:1038100008F0A6FD039B08961860C9E4089B53F8BE
:10382000042B08938A46A2F80080FFF7EBB9119C9D
:1038300021460A230131484604F078FA0F9BC21A48
:103840000DF2B3239C4228BF0DF2B22474492046E6
:1038500003F038F99AE4851C40F0FC80DBF8043072
:10386000002B56463FF733AF5946484605F0EEFA6F
:10387000002888D0DDF81880DDF830A00A94002EEA
:1038800089D0FFF7DDB99DF8482063E7D8F800300C
:10389000042B7FF46AAF6BE7DDE9056A002E7FF445
:1038A000B1A9039B1E60049B01330493FFF7AAB9DF
:1038B00014F8011C5A464846013C05F087FAFFF708
:1038C00047BB0C9B06998B42A3EB0102B8D15DE488
:1038D0009AF8020046F002060AF1020AFFF70BB955
:1038E000A844FFF78FB923F4F06303934FF0010A64
:1038F000FFF763BA23F4F06303934FF00109FFF776
:103900005CBA0A9B02333FF429AE039B186801F0AE
:103910004DFF20BB0A9B032BD0447FF416AE2B68CF
:10392000042B7FF412AE11E60492FFF74CB9089B0A
:1039300053F8042B8A46C2F800800893FFF762B957
:103940005946484605F082FA00283FF40CAE53462B
:10395000059EDDF818A0002B7FF472A99EE7534660
:10396000059EDDF818A0002B98D058AB1C44C3F17D
:10397000010514F801195A46484605F027FAE542B0
:10398000F7D18BE74FF0000AE8E55346DDF81880E1
:10399000DDF830A00A94002B3FF4FDAE58AB1E4476
:1039A000C3F1010416F801195A46484605F00EFA0B
:1039B000F442F7D1EFE64A465346D946039EDDF876
:1039C00038A08B46FFF713BA0B9DAC427FF6FBA8DD
:1039D00014F8011D5A46484605F0F8F9AC42F7D1F3
:1039E000FFF7F1B84FF0FF330493FFF7ECB80B9DEE
:1039F000AC427FF6E8A814F8011D5A46484605F087
:103A0000E5F9AC42F7D1FFF7DEB8344643E604F0FF
:103A100019FCFFF7C2BA08F101083CE6580A002079
:103A200084DB04086A48089603F02AF8039B83EDB8
:103A3000000AFFF7BDBB0B9A94427FF6C4A814F8A6
:103A4000011D5A46484605F0C1F90B9B9C42F6D130
:103A5000FFF7B9B8039B1B681D4601337FF466AEC0
:103A60002A4677E6012D38BF012516F0010415D14D
:103A7000F10679D4089C2B4654F8041BCDF800B00D
:103A80000122484605F000FA00283FF4D9A8049B1B
:103A90000894013380440493FFF7B4B816F0100380
:103AA000039308BF089BCDF814A004BF53F8046B20
:103AB00008934FF000040A9BAA4618BF00264D4603
:103AC000A146069301F0A0FE48453FF4B9A8DBE902
:103AD000002158AB12F8010B03F80900069B0139CD
:103AE000032BCBE9002109F1010916AC02D12368AF
:103AF000042B04D0082200212046FDF761F84B4634
:103B000058AA00943146284601F064FF421C03463F
:103B10003FF496A800283DD1039A02B93260C84408
:103B20000AF1FF3A039A02B90436DBF80420002AAE
:103B30004FF0000934DDBAF1000FC2D1DDF814A056
:103B40000A93A946039B002B3FF432ABFFF75AB808
:103B5000DBF800201A44CBF80020594648461C44A4
:103B6000ED1A05F073F978B9DBF804309D42EFDC0B
:103B70005B1BCBF80430DBF800302C441D44CBF841
:103B80000050A044FFF74EBA002C3FF459A8A044BF
:103B9000FFF748BA981C14D1DBF80420002A90DC07
:103BA00059462846069305F051F9069B0028C2D0D5
:103BB0004C46DDF814A00A93A946002CC2D0FFF7AA
:103BC0003FB8032BC844ABD12268042AA8D1A9E787
:103BD00040DC040838B50C46084D844611462046A2
:103BE0001A4600232B60644622F0DAF8431C00D00A
:103BF00038BD2B68002BFBD0236038BDF00F0020B0
:103C000038B5334B1B6805460C460BB19A6B12B3A3
:103C1000B4F90C3018079AB225D5216900292DD0A6
:103C200012F0010007D00020A06060694042A0614E
:103C300039B1002038BD950758BF6069A0600029E0
:103C4000F7D1120658BF0846F4D543F04003A381CC
:103C50004FF0FF3038BD184601F076FAB4F90C3059
:103C600018079AB2D9D4D1062AD5520714D421699B
:103C700043F00803A3819AB20029D1D102F4207045
:103C8000B0F5007FCCD02146284601F003FEB4F900
:103C90000C3021699AB2C3E7216B51B104F14002A3
:103CA000914204D0284601F0BFFAB4F90C3000224A
:103CB000226321690022C4E9001223F02403D7E71C
:103CC000092243F040032A604FF0FF30A38138BD42
:103CD0001802002070B4184C2568D5F848411CB370
:103CE00065681F2D25DC38B9AB1C0135656044F8CB
:103CF0002310002070BC704704EB850C0228CCF820
:103D00008820D4F888614FF0010202FA05F246EAF1
:103D10000206C4F88861CCF80831E5D1D4F88C31BA
:103D20001343C4F88C31DFE705F5A674C5F84841A4
:103D3000D6E74FF0FF30DDE780A1030838B5074D27
:103D40000022044608462A6009F00EFE431C00D0FB
:103D500038BD2B68002BFBD0236038BDF00F00204E
:103D60002DE9F04F03690C69A34283B0C0F287804C
:103D7000013C01F11405A30000F11408009355F86B
:103D8000243058F82420013381469A4208EB8400FD
:103D900005EB84070190B2FBF3F63BD30023AE465C
:103DA00040469B465EF804AB02681FFA8AFC06FB9D
:103DB0000C334FEA134C4FEA1A4A06FB0ACA1FFAA1
:103DC00083FCABEB0C0C1FFA8AF31CFA82FCC3EBEE
:103DD000124202EB2C421FFA8CFC4CEA024377455C
:103DE00040F8043B4FEA224B4FEA1A43DAD2009BD9
:103DF00058F8033073B9019B043B984504D307E09E
:103E0000984504F1FF3403D253F80429002AF7D06F
:103E1000C9F81040484602F07DF900282BDB013636
:103E20004046002355F8041BD0F800C08AB29A1A05
:103E30000B0C12FA8CF2C3EB1C4303EB224392B23D
:103E400042EA0342AF4240F8042B4FEA2343E9D24F
:103E500058F8242008EB84036AB9043B984504D33E
:103E600007E0984504F1FF3403D253F80429002AEF
:103E7000F7D0C9F81040304603B0BDE8F08F0020FD
:103E800003B0BDE8F08F00BF2DE9F04F2DED068B9C
:103E900095B08DED020B0191016C249D099259ECB6
:103EA000108B0446069341B1426C4A600123934053
:103EB0008B6001F073FE00232364B9F1000AB4BFE4
:103EC000012300232B607C4BBCBF2AF0004ACDF8B5
:103ED0000CA033EA0A0300F0B2809DED027B0022C1
:103EE00051EC170BB0EE479AF0EE679A002308F0FA
:103EF000A7F9074680B1069A01231360259B002B82
:103F000000F0DB826D481860431E0093009815B0E6
:103F1000BDEC068BBDE8F08F12AA13A92046B0EEC7
:103F2000490AF0EE690A02F04DFAB0EE498AF0EE65
:103F3000698A5FEA1A56054640F09980DDE91276F3
:103F40003E4406F23240202840F3AB83C0F14000EB
:103F50000AFA00FA06F2124028FA00F04AEA0000D3
:103F600007F08CFE0123013E0D93A1F1F871544B33
:103F7000002207F045FD4AA3D3E9002307F0F8FE2D
:103F800049A3D3E9002307F03DFD8046304689462A
:103F900007F084FE46A3D3E9002307F0E9FE0246BA
:103FA0000B464046494607F02DFD8046894608F0FD
:103FB0008FF90022834600234046494608F04AF91B
:103FC000002840F06D82BBF1160F00F25C823D4B81
:103FD00003EBCB03D3E9002351EC190B08F03AF9BA
:103FE000002875D00023BE1B0C93731E0BF1FF3B02
:103FF000049300F14F8200230893BBF1000F6EDAA7
:10400000089BCDF814B0A3EB0B030893CBF100038E
:104010000B93019B092B4FF0000B69D8052B40F344
:104020003E83043B01930026019B023B032B00F2DD
:104030009986DFE813F04E044B0443042604069AE5
:1040400042F20F73CAF3130A13605AEA08031DD130
:10405000259B002B00F07D861B4B00930833259A8F
:104060000098136015B0BDEC068BBDE8F08F18EE1C
:10407000903AC3F3130351EC190B43F07F510D97A2
:10408000A6F2FF36129F41F4401170E7259B002BEA
:1040900040F0DB830D4B009338E700BFAFF30080A7
:1040A00061436F63A787D23FB3C8608B288AC63F3E
:1040B000FB799F501344D33F0000F07F81B3040885
:1040C0000000F83FE0A2030890DB04088CDB040842
:1040D000BE1B731E049300F19A840C900890049BFD
:1040E0005B44CDE9043B00230B93019B092B95D93D
:1040F000002301264FF0FF3201930A96079209939D
:10410000079B0F9300216164204601F021FD009080
:10411000002800F02F86009B2364079B0E2B00F2E3
:10412000F980002E00F0F6800599002940F3718493
:10413000BD4B01F00F0203EBC2034FEA2118C90582
:10414000D3E9006740F10384B84B51EC190BD3E974
:10415000082307F037FF41EC180B08F00F084FF069
:10416000030AB8F1000F13D0DFF8C09218F0010F66
:1041700009D030463946D9E9002307F0F9FD0AF1A4
:10418000010A06460F465FEA680809F10809EDD101
:1041900051EC180B32463B4607F014FF41EC1A0B6A
:1041A0000C9B5BB157EC1A6BA14B1AEE100A002264
:1041B000394608F04FF8002840F05285504607F085
:1041C0006DFD53EC1A2B07F0D3FD9A4B002207F03C
:1041D00019FC079B8046A1F15079002B00F0F38376
:1041E000059B1093079B0E930A9B002B00F0C08445
:1041F0000E9A8D4B9049DDF800A003EBC20353E902
:104200000223002007F0DEFE42464B4607F0F8FB93
:1042100059EC1A8B41EC180B49461AEE100A08F0BB
:1042200057F8074607F03AFD02460B461AEE100A09
:10423000494607F0E5FB30370AF8017B53EC182BB1
:1042400006460F4608F006F8002840F055854FF066
:1042500000080AEE105ACDF844B055465BEC18AB96
:1042600008EE104A44462AE00E9B01349C424BDA89
:10427000724B50465946002207F07AFD6F4B0022E0
:1042800082468B463046394607F072FD89468046A5
:1042900008F01EF8074607F001FD02460B464046AF
:1042A000494607F0ADFB303705F8017B52465B46C7
:1042B00006460F4607F0CEFF002840F0188532462C
:1042C0003B465B49002007F09BFB52465B4607F0EC
:1042D000C1FF0028C8D0109B009A0593AA4618EE8B
:1042E000104A1AEE105A02E0924500F0EA84D146D4
:1042F0001AF8013D392BF7D00133DBB28AF80030D0
:10430000059B01330593ABE1DDF844B01AEE105A7A
:1043100018EE104A139B002BC0F29480059A0E2AC7
:1043200000F39080404B03EBC203D3E90089099B63
:10433000002B1BDA079B002B18DC40F05D83404B01
:1043400000224046494607F013FD02460B4651EC59
:10435000190B07F089FFDDF81CA05646002800F075
:10436000D082099BDDF80080DF43D2E242464B4613
:1043700051EC190B07F026FE07F0AAFF064683460C
:1043800007F08CFC42464B4607F0F2FC0B46024617
:1043900051EC190B07F034FBDDF800A03346303345
:1043A0000AF8013B079B012B00F08E834FF0010BB5
:1043B00008EE105A08EE904A1D465446DA461DE0B3
:1043C00042464B463046394607F0FCFD07F080FF79
:1043D000834607F063FC42464B4607F0C9FC0AF1EE
:1043E000010A0B4602463946304607F009FB0BF13D
:1043F0003003AA4504F8013B00F061830F4B002213
:1044000007F0B6FC0022002306460F4607F018FF0F
:104410000028D5D0A24618EE105A18EE904A059BF7
:1044200001330593D1461BE1E0A20308D0A30308A2
:104430000000F03F00001C400000E03F000024406E
:10444000000014400A9A002A3FD0019A012A40F342
:104450009C82079B03F1FF380B9B4345C0F26E82A1
:10446000A3EB0808079B002BC0F26683049A1A444A
:104470000492089A17461A4408920121204601F036
:1044800095FC064625E00123BE1B0C93731E049386
:104490007FF5B1ADC6F10103089300230493ACE5A9
:1044A000584607F0FBFB42464B4607F0C9FE002882
:1044B0007FF489AD0BF1FF3B85E5874B00930098B6
:1044C00015B0BDEC068BBDE8F08FDDF82C80089FA1
:1044D0000A9E002F0CDD049A002A09DD0899BA42D1
:1044E0001346A8BF3B46C91AFF1AD31A0891049372
:1044F0000B9BDBB10A9B002B00F08282B8F1000F0E
:104500000FDD31464246204601F02CFD2A46014689
:104510000646204601F078FC29460546204601F073
:104520003DFB0B9BB3EB080240F0008301212046CA
:1045300001F03CFCBBF1000F824600F3B780019B09
:10454000012B40F386814FF000080120BBF1000FE2
:1045500040F0B880049A104410F01F0000F09680DC
:10456000C0F12003042B40F3F883089BC0F11C002A
:1045700003440244089307440492089B002B05DD82
:1045800029461A46204601F04DFD0546049B002BA6
:1045900005DD51461A46204601F044FD82460C9B3B
:1045A000002B40F03781079B002B40F31E810A9BB4
:1045B000002B40F0A180059B01330593DDF80080BE
:1045C000DDF81C90012707E0294600230A22204637
:1045D00001F0EEFA0137054651462846FFF7C0FBC9
:1045E0004F4500F1300008F8010BEDDB079A002A77
:1045F000C8BF9346009AD8BF4FF0010B03469344BF
:104600000027294601222046019301F00BFD514667
:10461000054601F07FFD002840F3A5811BF8013C11
:10462000009A0BF1FF3B04E05A4500F0A7811BF80C
:10463000013D392B0BF10109F6D001338BF8003025
:104640005146204601F0AAFA56B12FB1B74203D025
:104650003946204601F0A2FA3146204601F09EFA82
:104660002946204601F09AFA002389F80030DDE956
:1046700005231A60259B002B3FF448AC0098C3F833
:10468000009015B0BDEC068BBDE8F08F1C20089B98
:1046900003440893049B0344074404936DE70126F5
:1046A000C2E4C0F1200008FA00F059E401465A467D
:1046B000204601F057FC019B012B824640F3D58137
:1046C0004FF00008DAF810300AEB8303186901F0A4
:1046D0001DFBC0F120003DE780B3040831460023F4
:1046E0000A22204601F064FA0F9B002B064640F395
:1046F0002383CDF814900793002F00F31881B8F1AD
:10470000000F40F0FC81B046029B009F079903F028
:1047100001027B1E1944019B0A92134308910993DD
:1047200051462846FFF71CFB31468346284601F0D8
:10473000F1FC424651468146204601F00DFDC2681B
:1047400001460BF13003002A42D10490284607931A
:1047500001F0E0FC04990290204601F01FFA029A51
:10476000079B1AB90999002900F0D682B9F1000F08
:10477000C0F28781019949EA01090A9951EA0901C0
:1047800000F07F81002A00F3E781089A3B7007F16F
:1047900001099742CB4600F0E581294600230A2211
:1047A000204601F005FA4645054631464FF0000324
:1047B0004FF00A02204612D001F0FAF941460646AF
:1047C00000230A22204601F0F3F94F468046A7E76E
:1047D0002046029301F0E2F9029B0122C6E701F0B4
:1047E000E7F94F46064680469AE7019B022B77DCA5
:1047F0000A9B002B80D1059B514601332846059327
:10480000FFF7AEFADDF800B000F130030BF8013B22
:104810000027F6E65146284601F07CFC0028BFF64A
:10482000C2AE294600230A22204601F0C1F9059BA9
:1048300003F1FF390A9B0546002B7FF44FAF0F9B16
:10484000002B40F370820793B8E6BD4B009303330F
:1048500005E4DDE9021200297FF475AEC2F313030B
:10486000002B7FF470AEB74B1340002B00F03D825D
:10487000089B01330893049B013304934FF0010814
:1048800063E601230A93099B059A13440F930133AE
:10489000012B1F460793B8BF01270021172F616422
:1048A0007FF732AC012204235B0003F11400B8420D
:1048B000114602F10102F7D9616425E401230A934C
:1048C000099F002F4ADD0F970797E6E700230A9319
:1048D000D9E700230A93F3E70F9BCDF814900793D1
:1048E000079B002B7FF43DAD51460522204601F089
:1048F0005FF901468246284601F00CFC00287FF74C
:1049000030AD0098059F3123804600F8013B013708
:1049100000905146204601F041F97B1CDDF80090E3
:104920000593CDF80080002E7FF496AE98E63146D0
:104930003A46204601F076FB0646E0E60B9BCDF8B2
:104940002C80A8EB03039B444FF000088AE54FF04E
:10495000020AB0EE498AF0EE698A02E40123099363
:104960000793FFF7CDBB03D1019BDB073FF556AEA5
:10497000D9461BF8013D302BFAD061E6059B009A21
:1049800001330593312313705AE60D9A002A00F083
:10499000638103F23343049ADDF82C801A440492B5
:1049A000089A17461A44089267E5504607F076F9C8
:1049B00053EC1A2B07F0DCF9634B002207F022F8C6
:1049C0008046A1F15079614B002251EC1A0B07F09F
:1049D00017F842464B4606460F4607F059FC00289A
:1049E00040F07F8130463946424609F1004307F0E6
:1049F00031FC00283FF48EAC4FF0000A5646B0E47C
:104A000029460B9A204601F0ADFA05468EE50C903A
:104A100040E500F04E81059A4D4B564206F00F02DC
:104A200003EBC203D3E9002351EC190B07F0A0F903
:104A3000361141EC1A0B00F08881464F00234FF0ED
:104A4000020AF20706D5D7E9002307F091F90AF127
:104A5000010A0123761007F10807F2D1002B3FF479
:104A60009FAB41EC1A0BFFF79BBB029B002B7FF423
:104A700027AEDDE90212C2F31303002B3FF4F3AEBD
:104A80001EE6002A12DD294601222046019301F08C
:104A9000C9FA5146054601F03DFB0028019B40F351
:104AA0003581392B00F013810BF13103B94609F838
:104AB000013B059B0133374605934646C0E5A246B8
:104AC00018EE105A18EE904A02460B4606F09AFF6E
:104AD00042464B4606460F4607F0DAFB60B94246AF
:104AE0004B463046394607F0ABFB00283FF497AC05
:104AF0005FEACB717FF593AC009AFFF7F8BB716862
:104B0000204601F025F80746002800F03A81336975
:104B100002339A0006F10C010C30FBF73BFF3946DB
:104B20000122204601F07EFA8046EDE52946204626
:104B300001F018FA0546F9E4DDE907239F1A9CE421
:104B40008CDB04080000F07F00001C4000001440D3
:104B5000E0A20308D0A30308392B00F0B880B946BF
:104B60000133A4E7059A013237460592464648E5E7
:104B70000E988D4901EBC00142464B4651E90201B6
:104B800007F0F6F85AEC1A9B41EC180B51461AEE56
:104B9000100A07F09DFB074607F080F802460B4617
:104BA0001AEE100A514606F02BFF06460E98DDF865
:104BB00000803037012808F8017B0F4600F0BA80EA
:104BC0000E9B009ACDF838B013449B46C246774BF3
:104BD00000223046394607F0CBF88946804607F078
:104BE00077FB074607F05AF8303702460B46404637
:104BF000494606F005FF0AF8017BDA4506460F46EE
:104C0000E5D1DA46DDF838B0694B59EC188B002253
:104C100018EE100A494606F0F5FE32463B4607F00C
:104C200019FB00286DD118EE102A4B466049002070
:104C300006F0E6FE32463B4607F02AFB00283FF42A
:104C400069ABD1460AF1FF3A19F8013C302BF8D094
:104C5000109B0133059303E5129BC3F136039AE6DB
:104C6000079B002B3FF4A1AE0F9B002B7FF752ABAD
:104C7000059A0E93013A4D4B10921AEE100A3946DE
:104C8000002207F075F8024616460F460AF10100A9
:104C900007F004F832463B4607F06AF8454B00221D
:104CA00006F0B0FE47EC1A6B8046A1F15079FFF791
:104CB0009BBA4FF0020AB0EE49AAF0EE69AAFFF7DC
:104CC0006FBA059B013305933123FFF717BB059B93
:104CD000BB4601330593392337460BF8013B464663
:104CE0009EE44FF0000A56460BE698462DE4AA468D
:104CF00018EE104A1AEE105A109B01330593D14654
:104D0000AEE4109B009A0593FFF7F1BA7FF4CEAEA4
:104D1000DA077FF5CBAEC4E6392BD8D0B9F1000F56
:104D20003FF7C2AEC2E6019B022B3FF7D5ADCDF8EF
:104D3000149060E5C24667E7019B022B3FF7CCADBC
:104D40000F9BCDF814900793D6E44FF0020AFFF7BB
:104D500027BA194B0093FFF7D9B83FF40EACC0F156
:104D60003C0094E4002666643146204600F0F0FEE4
:104D7000009068B9114B124800224FF4D57105F02C
:104D8000C5FF0E4B0E483A4640F2EA2105F0BEFF41
:104D9000009B236401224FF0FF3309960F930A9280
:104DA0000793FFF7B7BA00BFE0A203080000244052
:104DB0000000E03F00001C4090DB04089CDB04087E
:104DC000B0DB0408B1F90C202DE9F0410C461107C5
:104DD000804647D4636842F40062002BA2815EDD06
:104DE000A56A002D58D00023D8F80060C8F800301C
:104DF00093B212F4805256D10123E1694046A8478C
:104E0000431C67D0A389A56A5F0705D56368C01AEC
:104E1000236B0BB1E36BC01AE169024600234046E5
:104E2000A847411C41D1D8F80030002B3DD01D2BA4
:104E300001D0162B56D1A3892269226023F4006386
:104E400000216160A381216BC8F8006021B304F1E7
:104E50004003994202D0404600F0E6F9002020636A
:104E6000BDE8F0812669BEB193B2256826609A0735
:104E70000CBF63690023AD1BA3600BE02B463246D9
:104E8000E169676A4046B847B0F1000CA5EB0C0534
:104E9000664417DD002DF1DC0020BDE8F081E36BF6
:104EA000002B9DDCF8E7206DAEE7B4F90C302269E9
:104EB000226023F40063A3810022DB046260C2D578
:104EC0002065C0E7A38943F040034FF0FF30A38182
:104ED000BDE8F081D8F80030002B93D01D2B06D010
:104EE000162B04D0A38943F04003A381D5E7C8F86B
:104EF0000060D1E738B50D46044608B1836B1BB19D
:104F0000B5F90C0030B938BD00F01EF9B5F90C0048
:104F10000028F8D029462046BDE83840FFF752BFA8
:104F200038B5B8B10F4B1D6804460DB1AB6B4BB132
:104F3000B4F90C0000B938BD21462846BDE8384018
:104F4000FFF740BF284600F0FFF8B4F90C00002836
:104F5000F1D0F1E7044B05491868BDE8384000F08E
:104F600001BC00BF1802002080A10308F54E000814
:104F700000207047014900F0F5BB00BF1DAE0008DE
:104F8000002070472DE9F84F2D4A4668C26300247F
:104F90000323C0E9B843074600F53B720423C0F879
:104FA000E8222146C6E902430822C6E90044C6E9D0
:104FB00004447466B46106F15C00FBF701FEDFF89F
:104FC0008CB0BD68DFF888A0DFF88890DFF88880B3
:104FD0001C4BC6F824A0C6E9076BC6F82890C6F893
:104FE0002C800822EB60C5E90044C5E904446C66E6
:104FF000AC60AC61214605F15C00FBF7E1FDC5E961
:10500000075BC5E909A9C5F82C80FD680E4BEB606C
:10501000C5E90044C5E904446C66AC60AC61214656
:10502000082205F15C00FBF7CBFD0123C5E9075B16
:10503000C5E90A98C5F824A0BB63BDE8F88F00BF96
:10504000754F00080900010012000200011100085C
:1050500029110008691100088911000870B568223B
:105060004D1E02FB05F50E4605F17401FBF7E8F94C
:10507000044640B100210C30C4E90016A06005F1DF
:105080006802FBF79DFD204670BD00BF274B2DE950
:10509000F0411E68B36B07465BB306F538764FF0F8
:1050A0000408D6E90134013B04D51EE05A1C04F182
:1050B00068041AD0B4F90C50013B002DF6D11C4BFA
:1050C0006566C4E90055C4E90253C4E90455A56105
:1050D0000822294604F15C00FBF772FDC4E90C5577
:1050E000C4E911552046BDE8F08135682DB12E4642
:1050F000D7E73046FFF746FFCFE74FF4D671384683
:10510000FBF79EF9044668B10560C0F804800C30D6
:105110002946A06025464FF4D072FBF751FD34605C
:105120002E46BEE70C2330603B60DBE780A103081E
:105130000100FFFF024B0349186800F013BB00BFDA
:1051400080A103081DAE0008836B03B1704719E707
:10515000704700BF704700BF704700BF704700BF77
:10516000024B0349186800F0DDBA00BF18020020A6
:10517000714F0008024B0349186800F0D3BA00BF12
:1051800018020020814F0008F8B5244F0C4606464F
:10519000FBF768FDBA685568C4F57E630F3325F0E8
:1051A00003052B4423F47F6323F00F03A3F58054FE
:1051B000B4F5805F07DB00213046FBF757FDBB6885
:1051C0002B44984204D03046FBF74EFD0020F8BD3A
:1051D00061423046FBF74AFD01300DD0104ABB68F2
:1051E0002D1B45F001055D60136830461B1B1360E5
:1051F000FBF73AFD0120F8BD00213046FBF736FDF4
:10520000BA68831A0F2BDEDD43F001035360054BB0
:1052100003491B68C01A0860D5E700BF4806002094
:10522000C00F0020500A0020002961D0F8B50C46BC
:105230000646FBF717FD54F8042C7B4FA4F1080534
:1052400022F0010105EB010CB868DCF80430604580
:1052500023F0030300F08B80D207CCF8043032D463
:1052600054F8082CAD1A1144AA6807F108008242CC
:105270006AD00CEB0304D4F804E0EC68D4601EF0B0
:10528000010FA26000F0978041F001036B60CCF841
:105290000010B1F5007F35D27A68CB0848090121AA
:1052A000013381401143796007EBC30257F8331093
:1052B000083AC5E9021247F83350CD603046BDE8E0
:1052C000F840FBF7D1BC0CEB03025268D00710D4B6
:1052D000194407F10800DCF80830834273D0DCF889
:1052E0000C20DA60936041F001036B606950D0E7F5
:1052F000704741F00103B1F5007F44F8043CCCF85D
:105300000010C9D3B1F5206F4FEA512348D28B0961
:1053100003F1390003F13802C300F818FB580838CC
:10532000984259D05A6822F003028A4202D99B68F7
:105330009842F7D1D868C5E902308560DD60304613
:10534000BDE8F840FBF790BC0CEB03025268D207B3
:1053500063D40B44DCE90212CA60916043F001029D
:105360006A603046EB50BDE8F840FBF77DBC0B446B
:10537000D10707D454F8082CAD1A1344D5E902120A
:10538000CA60916043F001026A60284ABD601268F9
:105390009A4293D8264B30461968FFF7F5FE8DE701
:1053A000142B0AD9542B1FD80B0B03F16F0003F1F8
:1053B0006E02C300B1E719448DE703F15C0003F10D
:1053C0005B02C300A9E741F00103C7E90455C5E941
:1053D00002006B60695071E779689210012404FA49
:1053E00002F20A437A60A6E7B3F5AA7F06D8CB0B90
:1053F00003F1780003F17702C3008EE740F25452C4
:10540000934206D88B0C03F17D0003F17C02C300AC
:1054100083E74FF47E737E227FE741F001036B60E8
:10542000CCF800104AE700BF48060020540A0020CC
:10543000BC0F00209368002B00F085802DE9F04F11
:10544000B1F90C300C461907804683B0174698B264
:1054500025D523691BB310F002033D682DD04FF012
:10546000000ADFF8BCB25646B9465E45334652469E
:1054700028BF5B464046002E52D0E169676AB847B4
:10548000002856DDD9F808301B1A8244361AC9F8AC
:105490000830002BE9D1002003B0BDE8F08F214691
:1054A0004046FEF7ADFB002840F03681B4F90C30E1
:1054B0003D6898B210F00203D1D110F0010944D137
:1054C0004E46009746B38205D4F808B040F1838079
:1054D000B3455A4600F2B28010F4906F40F0BF809E
:1054E000206801924946FBF7EFFAA368019AA3EB03
:1054F0000B012368A1601344B24623600026009B81
:105500009868A0EB0A00D14498600028C3D0B4F991
:105510000C0080B2002ED6D1D5E900960835D1E72F
:10552000D5E900A60835A0E721464046FFF7E2FC92
:1055300080B3B4F90C3043F040034FF0FF30A38147
:1055400003B0BDE8F08F002070471E46AA4699467A
:1055500018461D46009756B388B34A46D4E904134B
:105560002068B24228BF3246884205D9A16803EBC1
:10557000010B5A4500F3A680934263DCE169676A38
:105580002A464046B847B0F1000BD2DDB9EB0B0913
:10559000CAD00120009A9368A3EB0B035D44A6EBED
:1055A0000B069360002B3FF476AF002ED4D10AF1A6
:1055B000080353E902569A460833002EF9D03246C2
:1055C0000A21284600F074FA002800F09C8001307F
:1055D000A0EB0509C1E720682369984216D86369E2
:1055E000B34213D86FF00042B24228BF3246E1699D
:1055F00092FBF3F2676A02FB03F340464A46B84760
:10560000B0F1000A95DDA6EB0A0678E7B345DA4665
:1056100028BFB24652464946FBF756FAA3682268AD
:10562000A3EB0A035244A3602260002BEBD1214676
:105630004046FFF75FFC0028E5D07AE72068B346D4
:1056400032464EE729460192FBF73EFA019AA368DB
:105650009B1AA360236813442360934696E723684C
:105660002169A3EB010B636903EB430A0AEBDA7AC6
:105670000BF101034FEA6A0A33445345524684BF93
:105680009A46524643052CD511464046FAF7D8FEB5
:1056900000283BD05A4621690190FBF77BF9A2898B
:1056A000019B22F4906242F08002A28103EB0B0086
:1056B0002361AAEB0B03C4F814A0A3602060B346D7
:1056C00032460EE729465A46FBF7FEF923685B444B
:1056D000236021464046FFF70DFC00283FF456AFFB
:1056E00027E7404600F09AFF03460028DED12169F3
:1056F0004046FFF799FDB4F90C300C2223F08003EB
:10570000C8F8002017E7721C914627E70C22B4F96D
:105710000C30C8F800200EE74FF0FF30BCE600BFA9
:1057200000FCFF7F2DE9F041884600F53877002620
:10573000D7E90154013D0FD4A389012B05F1FF35B1
:1057400006D9B4F90E300133204601D0C0470643D4
:105750006B1C04F16804EFD13F68002FE8D130469C
:10576000BDE8F0812DE9F8430746884600F5387614
:105770004FF00009D6E90154013D11D4A389012B52
:1057800005F1FF3508D9B4F90E300133214603D0B5
:105790003846C04749EA00096B1C04F16804EDD1A2
:1057A0003668002EE6D14846BDE8F883002100F0B7
:1057B00001B800BFFF289DBF024BC05C00F008008D
:1057C00000207047C9A1030842B110B50B4910462B
:1057D0001446FBF7E9FC18B9094810BD08487047A2
:1057E00007492046FBF7E0FC0028F5D00549204694
:1057F000FBF7DAFC0028EFD0002010BDE8DB04083E
:10580000E4DB040840DC0408014B93F828017047EE
:10581000580A002041B110B50C4620460A49FBF752
:10582000C3FC18B9094810BD08487047074920460D
:10583000FBF7BAFC0028F5D005492046FBF7B4FC7D
:105840000028EFD0002010BDE8DB0408E4DB0408EA
:1058500040DC0408F030704700487047480B0020D7
:1058600000487047480B002038B50C46084D844668
:10587000114620461A4600232B60644608F09CF827
:10588000431C00D038BD2B68002BFBD0236038BDF3
:10589000F00F00202DE9F0418B890C46990796B056
:1058A00008D504F143030122C4E90432236016B091
:1058B000BDE8F081B4F90E100029064627DB6A46E0
:1058C00005F092FB002821DB019D05F47045A5F54C
:1058D0000055B5FA85F54FF480686D094FF40067FF
:1058E00041463046FAF7ACFDB4F90C30F0B1204A2D
:1058F000F26343F08003C4F81480A3812060206128
:1059000035BB3B43A38116B0BDE8F081A38913F0FA
:10591000800519D04FF0400841463046FAF790FD17
:105920000025B4F90C302F460028E0D19A05BED4EA
:1059300023F0030304F1430243F002030121C4E90D
:105940000421A3812260B2E74FF480682F46C7E7A5
:10595000B4F90E10304605F08DFF10B9B4F90C30D3
:10596000CFE7A38923F0030343F001031BB2C8E789
:10597000754F000870B50C46B1F90E10002996B0AD
:1059800015461E4614DB6A4605F02EFB00280FDB89
:10599000019A02F47042A2F50052B2FA82F24FF478
:1059A000806352094FF4006032602B6016B070BD06
:1059B000B4F90C10002311F08000336004D04022B1
:1059C00018462A6016B070BD4FF480632B6016B085
:1059D00070BD00BF70B582B00546069C42B10C4E4A
:1059E0000094D6F8E460B047431C0BD002B070BD01
:1059F000074B0094D3F8E46011460123054AB047F1
:105A0000431CF3D100228A2322602B6002B070BDB8
:105A1000580A002040DC040870B51C46104B82B0C8
:105A20001D6861B113460A4601460E480094D0F83D
:105A3000E4602846B047431C0BD002B070BD094B50
:105A40000094D3F8E460084A01232846B047431C79
:105A5000F3D100228A2322602B6002B070BD00BF08
:105A600018020020580A002040DC040810B4034C3F
:105A7000D4F8E440A4465DF8044B6047580A00207F
:105A800082B049B15AB16BB113780B601278101E15
:105A900018BF012002B0704701A9002AF3D11046B7
:105AA00002B070476FF00100F4E700BF0000000093
:105AB00001F0FF01102A2BDB10F0070F08D010F8BF
:105AC000013B013A8B422DD010F0070F42B3F6D1C3
:105AD000F0B441EA012141EA014122F007047FF0DC
:105AE00000070023F0E80256083C85EA010586EA33
:105AF000010685FA47F5A3FA87F586FA47F6A5FA6F
:105B000087F68EB9EED1F0BC01F0FF0102F007027A
